:100000000C945D000C9485000C9485000C94850084
:100010000C9485000C9485000C9485000C9485004C
:100020000C9485000C9485000C9485000C9485003C
:100030000C9485000C9485000C9485000C9485002C
:100040000C94DD020C9485000C9485000C948500C2
:100050000C9485000C9485000C9485000C9485000C
:100060000C9485000C94850000000008000201003B
:100070000003040700000000000000000000000072
:10008000250028002B0000000000240027002A0083
:10009000040404040404040402020202020203032E
:1000A0000303030301020408102040800102040836
:1000B00010200102040810209C0411241FBECFEF61
:1000C000D8E0DEBFCDBF11E0A0E0B1E0ECE5FDE09F
:1000D00002C005900D92AE31B107D9F721E0AEE133
:1000E000B1E001C01D92A334B207E1F710E0CDE505
:1000F000D0E004C02197FE010E94A606CC35D107AE
:10010000C9F70E9427030C94AC060C94000090E001
:10011000FC01EC55FF4F249180579F4FFC018491C7
:10012000882399F090E0880F991FFC01EA57FF4F50
:10013000A591B491FC01E458FF4F859194918FB73C
:10014000F894EC91E22BEC938FBF0895AF92BF929D
:10015000CF92DF92EF92FF920F931F93CF93DF9393
:100160006C017B018B01040F151FEB015E01AE18C2
:10017000BF08C017D10759F06991D601ED91FC91E4
:100180000190F081E02DC6010995892B79F7C50111
:10019000DF91CF911F910F91FF90EF90DF90CF9063
:1001A000BF90AF90089590E0FC01E859FF4F249173
:1001B000FC01EC55FF4F3491FC01E057FF4FE491F7
:1001C000EE23C9F0222339F0233001F1A8F42130C5
:1001D00019F1223029F1F0E0EE0FFF1FE458FF4F34
:1001E000A591B4918FB7F894EC91611126C0309528
:1001F0003E233C938FBF08952730A9F02830C9F0E3
:10020000243049F7809180008F7D03C08091800069
:100210008F7780938000DFCF84B58F7784BDDBCF6D
:1002200084B58F7DFBCF8091B0008F778093B00035
:10023000D2CF8091B0008F7DF9CF3E2BDACF3FB780
:10024000F8948091230190912401A0912501B0910F
:10025000260126B5A89B05C02F3F19F00196A11DC8
:10026000B11D3FBFBA2FA92F982F8827BC01CD0100
:10027000620F711D811D911D42E0660F771F881F5F
:10028000991F4A95D1F70895089590E080E0089568
:10029000FC0101900020E9F73197AF01481B590B91
:1002A000BC018BE291E00C94A6008F929F92AF92DA
:1002B000BF920F931F93CF93DF93CDB7DEB7A19774
:1002C0000FB6F894DEBF0FBECDBF19A2423008F4BE
:1002D0004AE08E010F5D1F4F842E912CB12CA12C72
:1002E000A50194010E948406E62FB901CA01EA30F3
:1002F000F4F4E05DD801EE938D01232B242B252B04
:1003000079F790E080E0109719F0CD010E94480144
:10031000A1960FB6F894DEBF0FBECDBFDF91CF918F
:100320001F910F91BF90AF909F908F900895E95CBF
:10033000E1CFCF93DF93EC0160E08E810E94D30088
:1003400061E08E810E94D30060E08E810E94D30024
:100350008BE891E00197F1F7DF91CF910895CF926B
:10036000DF92EF92FF920F931F93CF93DF936C0175
:100370007C0187E0E80EF11CD0E0C0E0062F10E021
:10038000B8010C2E02C0759567950A94E2F761706A
:10039000F70181917F010E94D3002196C430D105DD
:1003A00079F7C601DF91CF911F910F91FF90EF90E8
:1003B000DF90CF900C949901CF92DF92EF92FF9251
:1003C0000F931F93CF93DF93EC01F62E642F8C8154
:1003D0000E94D3008D818F3F19F060E00E94D3000E
:1003E0000F2D10E08F8584FF25C06E0187E0C80EB9
:1003F000D11CF12CE12CB8010E2C02C0759567952B
:100400000A94E2F76170F60181916F010E94D300B6
:10041000FFEFEF1AFF0A88E0E816F10461F7CE015A
:10042000DF91CF911F910F91FF90EF90DF90CF90D0
:100430000C949901B80184E0759567958A95E1F768
:10044000CE010E94AF016F2DCE01DF91CF911F91A0
:100450000F91FF90EF90DF90CF900C94AF0140E0B0
:10046000682F8BE291E00C94DC01CF93DF93823014
:1004700029F490913A01986090933A0180933E015B
:1004800010923F0180E48093400180E1809341011C
:1004900080E58093420180912F010E948700809126
:1004A00030018F3F11F00E948700809131010E943E
:1004B0008700CBE2D1E09E012B52314080913A017E
:1004C00084FD0AC084E090E02196281739073CF4A7
:1004D0008E810E948700EFCF88E090E0F5CF8BE31C
:1004E0009DE00197F1F760E080912F010E94D30019
:1004F00060E0809131010E94D300809130018F3FF4
:1005000019F060E00E94D30080913A0184FD39C067
:1005100063E08BE291E00E94AF01CBE4D6E4CE0130
:100520000197F1F763E08BE291E00E94AF01219720
:10053000F1F763E08BE291E00E94AF0183E592E086
:100540000197F1F762E08BE291E00E94AF018091A8
:100550003A0180620E942F0284E080933B018CE08C
:100560000E942F0281E00E942F028BE39FE10197FE
:10057000F1F782E080933C0186E0DF91CF910C940B
:100580002F0280620E942F028BE496E40197F1F71C
:1005900080913A0180620E942F0283E592E00197E8
:1005A000F1F780913A0180620E942F02D0CF41E0A2
:1005B0000E94DC0181E090E008951F920F920FB637
:1005C0000F9211242F933F938F939F93AF93BF93D9
:1005D00080911F0190912001A0912101B0912201F1
:1005E00030911E0123E0230F2D3758F50196A11DF0
:1005F000B11D20931E0180931F0190932001A093B1
:100600002101B09322018091230190912401A091B6
:100610002501B09126010196A11DB11D80932301F2
:1006200090932401A0932501B0932601BF91AF912F
:100630009F918F913F912F910F900FBE0F901F9020
:10064000189526E8230F0296A11DB11DD2CF7894EC
:1006500084B5826084BD84B5816084BD85B58260C7
:1006600085BD85B5816085BD80916E008160809378
:100670006E001092810080918100826080938100E1
:1006800080918100816080938100809180008160F1
:10069000809380008091B10084608093B10080914C
:1006A000B00081608093B00080917A008460809374
:1006B0007A0080917A00826080937A0080917A003B
:1006C000816080937A0080917A00806880937A00BC
:1006D0001092C10082E00E94350290E4B92ECBE373
:1006E000DFE100E010E0B0927C0080917A0080644D
:1006F00080937A0080917A0086FDFCCF809178000B
:1007000060917900762F682F072E000C880B990BCB
:100710000E945D0520E030E040EA50E40E941206AD
:1007200020E030E048EC52E40E94120620E030E085
:1007300040E85AE30E941206609327017093280153
:100740008093290190932A0181E00E942F02CE011B
:100750000197F1F7E1E080913E018111E0E0E19540
:10076000F0E0E55DFE4F848980680E942F028CE0F6
:1007700091E00E944801E1E080913E018111E0E0BA
:10078000E195F0E0E55DFE4F84898A5F80680E9414
:100790002F02C0902701D0902801E0902901F0900D
:1007A0002A01A7019601C701B6010E947F0688238E
:1007B00079F181E191E00E9448010E941F012B0123
:1007C0003C018AE0C82ED12CE12CF12C0E941F01A3
:1007D0006419750986099709683E7340810591057A
:1007E000A8F321E0C21AD108E108F10888EE480E0A
:1007F00083E0581E611C711CC114D104E104F10492
:1008000029F70115110509F46ECF0E9400006BCF86
:1008100026013701E89477F82FEF3FEF4FE75FE7C6
:10082000C301B2010E947F0681110DC02FEF3FEF7F
:100830004FE75FE7C301B2010E94270518161CF4B9
:1008400085E191E0B8CF2FEF3FEF4FE75FE4C701BD
:10085000B6010E940D0618161CF489E191E0ABCF99
:100860002FEF3FEF4FE75FECC701B6010E9427056E
:1008700087FDF3CF20E030E0A901C701B6010E9457
:10088000270587FF0AC041E06DE28BE291E00E94FC
:10089000DC01F7FAF094F7F8F0942AE037ED43EA38
:1008A0005BE3C701B6010E94BB042B013C010E941F
:1008B0002C056B017C010E945B059B01AC01C3010F
:1008C000B2010E94BA042B013C014AE0C701B60103
:1008D0000E94550141E06EE28BE291E00E94DC0152
:1008E00020E030E040E251E4C301B2010E94120670
:1008F0002B013C010E942C056B01F12CE12C4AE0FC
:10090000C701B6010E945501C701B6010E945B05EF
:100910009B01AC01C301B2010E94BA0420E030E0A7
:1009200040E251E40E9412060E942C0590E080E013
:100930004AE00E94550141CFEBE2F1E013821282BE
:1009400084E091E0918380838CE084838FEF8583C2
:100950008BE0868385E0878384E0808783E08187DE
:1009600082E082871386148615861686178681E0B4
:100970000C9435025058BB27AA270E94D2040C942D
:10098000D3050E94C50538F00E94CC0520F039F44B
:100990009F3F19F426F40C94C2050EF4E095E7FB92
:1009A0000C94BC05E92F0E94E40558F3BA176207BE
:1009B00073078407950720F079F4A6F50C940606D2
:1009C0000EF4E0950B2EBA2FA02D0B01B90190016A
:1009D0000C01CA01A0011124FF27591B99F0593FAE
:1009E00050F4503E68F11A16F040A22F232F342FF6
:1009F0004427585FF3CF469537952795A795F04044
:100A00005395C9F77EF41F16BA0B620B730B840B58
:100A1000BAF09150A1F0FF0FBB1F661F771F881F10
:100A2000C2F70EC0BA0F621F731F841F48F4879568
:100A300077956795B795F7959E3F08F0B0CF93955A
:100A4000880F08F09927EE0F9795879508950E94D3
:100A5000980508F481E008950E94EC0588F09F57FE
:100A600098F0B92F9927B751B0F0E1F0660F771FD2
:100A7000881F991F1AF0BA95C9F714C0B13091F0C8
:100A80000E940606B1E008950C940606672F782FA1
:100A90008827B85F39F0B93FCCF38695779567958D
:100AA000B395D9F73EF490958095709561957F4FF9
:100AB0008F4F9F4F0895E89409C097FB3EF490959F
:100AC0008095709561957F4F8F4F9F4F9923A9F027
:100AD000F92F96E9BB279395F695879577956795B6
:100AE000B795F111F8CFFAF4BB0F11F460FF1BC0FA
:100AF0006F5F7F4F8F4F9F4F16C0882311F096E98D
:100B000011C0772321F09EE8872F762F05C066233A
:100B100071F096E8862F70E060E02AF09A95660FF3
:100B2000771F881FDAF7880F9695879597F90895AC
:100B3000990F0008550FAA0BE0E8FEEF16161706EE
:100B4000E807F907C0F012161306E407F50798F056
:100B5000621B730B840B950B39F40A2661F0232B6F
:100B6000242B252B21F408950A2609F4A140A695EB
:100B70008FEF811D811D089597F99F6780E870E0D0
:100B800060E008959FEF80EC089500240A94161603
:100B9000170618060906089500240A94121613066B
:100BA000140605060895092E0394000C11F48823F9
:100BB00052F0BB0F40F4BF2B11F460FF04C06F5F15
:100BC0007F4F8F4F9F4F089557FD9058440F551FEB
:100BD00059F05F3F71F04795880F97FB991F61F0BF
:100BE0009F3F79F087950895121613061406551F36
:100BF000F2CF4695F1DF08C0161617061806991FA2
:100C0000F1CF86957105610508940895E894BB2796
:100C100066277727CB0197F908950E94980508F475
:100C20008FEF08950E9425060C94D3050E94C505F8
:100C300038F00E94CC0520F0952311F00C94BC05EF
:100C40000C94C20511240C9407060E94E40570F36D
:100C5000959FC1F3950F50E0551F629FF001729F61
:100C6000BB27F00DB11D639FAA27F00DB11DAA1F70
:100C7000649F6627B00DA11D661F829F2227B00DBD
:100C8000A11D621F739FB00DA11D621F839FA00D48
:100C9000611D221F749F3327A00D611D231F849F98
:100CA000600D211D822F762F6A2F11249F575040EF
:100CB0009AF0F1F088234AF0EE0FFF1FBB1F661F6A
:100CC000771F881F91505040A9F79E3F510580F033
:100CD0000C94BC050C9407065F3FE4F3983ED4F3F4
:100CE000869577956795B795F795E7959F5FC1F7D7
:100CF000FE2B880F911D9695879597F908950E9470
:100D00009805880B990B0895A1E21A2EAA1BBB1B0C
:100D1000FD010DC0AA1FBB1FEE1FFF1FA217B307C7
:100D2000E407F50720F0A21BB30BE40BF50B661FDD
:100D3000771F881F991F1A9469F7609570958095A1
:100D400090959B01AC01BD01CF010895EE0FFF1FEF
:0C0D50000590F491E02D0994F894FFCF79
:100D5C0000000000D702A6004501440154656D70E7
:0E0D6C00006E616E00696E66006F76660000B4
:00000001FF
