:020000040000FA
:100000000C947B010C94A3010C94A3010C94970C09
:100010000C94970C0C94970C0C94A3010C94A301D2
:100020000C94A3010C94A3010C94A3010C94A301C0
:100030000C94A3010C94A3010C94A3010C94A301B0
:100040000C944D0C0C94A3010C941B0C0C94F50B0C
:100050000C94A3010C94A3010C94A3010C94A30190
:100060000C94A3010C94A3015D2000626C6E6B697B
:100070006E660076657200302E362E3100682D6275
:1000800065617400313000627566662D696E0032FC
:100090003536006465760041726475696E6F20556F
:1000A0006E6F006370750041546D6567613332385F
:1000B0005000636F6E0053747265616D0062756904
:1000C0006C64004D61722032342032303231203184
:1000D000353A32363A333700000000000000240081
:1000E00027002A000D0A202020205F5F5F20205F6C
:1000F0005F202020202020202020205F5F0D0A206C
:1001000020202F205F20292F202F5F205F5F5F5F3F
:100110005F20202F202F5F5F0D0A20202F205F20DF
:10012000202F202F202F2F202F205F205C2F2020FA
:10013000275F2F0D0A202F5F5F5F5F2F5F2F5C5FB0
:100140002C202F5F2F2F5F2F5F2F5C5F5C0D0A200D
:10015000202020202020202F5F5F5F2F2076302E50
:10016000362E31206F6E2041726475696E6F205596
:100170006E6F0D0A00436F6E6E656374696E672E55
:100180002E2E006D73292E0052656164792028702F
:10019000696E673A200000000008000201000003B9
:1001A00004070000000000000000A601A601A6014F
:1001B000A601A601A601A601A601A601A601A60107
:1001C000A601A601A601A601A601A601A601A601F7
:1001D000A601A601A601A601A601A601A601A601E7
:1001E000A601A601A601A601A601A501A501A501DA
:1001F000A501A501A501A501A501A501A501A501CF
:10020000A501A501A501A501A501A501A501A501BE
:10021000A501A501A501A501A501A501A501A501AE
:10022000A501A501A501A501A501496E76616C692D
:100230006420485720636D643A20005365727665E8
:10024000723A20005265646972656374696E672052
:10025000746F20005265616479005061636B65744E
:1002600020746F6F206269673A2000436F6E6E657D
:100270006374206661696C65642E20636F64653AFF
:100280002000496E76616C69642061757468207421
:100290006F6B656E004C6F67696E2074696D656F7A
:1002A0007574004865617274626561742074696D6B
:1002B000656F75740000000000230026002900000F
:1002C000000000250028002B00040404040404049A
:1002D00004020202020202030303030303010204F5
:1002E00008102040800102040810200102040810B8
:1002F00020000F0D720F11241FBECFEFD8E0DEBF1C
:10030000CDBF11E0A0E0B1E0E2EAF3E202C0059067
:100310000D92A234B107D9F722E0A2E4B1E001C006
:100320001D92AC36B207E1F711E0CAE7D1E004C094
:100330002197FE010E949D11C937D107C9F70E947C
:10034000F40D0C94C4110C94000008950895AF921C
:10035000BF92CF92DF92EF92FF920F931F93CF93B2
:10036000DF936C017B018B01040F151FEB015E0114
:10037000AE18BF08C017D10759F06991D601ED91A9
:10038000FC910190F081E02DC6010995892B79F748
:10039000C501DF91CF911F910F91FF90EF90DF90FA
:1003A000CF90BF90AF900895FC01538D448D252FC1
:1003B00030E0842F90E0821B930B541710F0CF96FF
:1003C000089501970895FC01918D828D981761F031
:1003D000A28DAE0FBF2FB11D5D968C91928D9F5F48
:1003E0009F73928F90E008958FEF9FEF0895FC0127
:1003F000918D828D981731F0828DE80FF11D858DDA
:1004000090E008958FEF9FEF0895FC01918D228D6C
:10041000892F90E0805C9F4F821B91098F739927F1
:10042000089580E991E00E94050221E0892B09F4FA
:1004300020E0822F089580E090E0892B29F00E942F
:10044000110281110C9400000895FC01A48DA80FE5
:10045000B92FB11DA35ABF4F2C91848D90E0019606
:100460008F739927848FA689B7892C93A089B18926
:100470008C91837080648C93938D848D981306C0C7
:100480000288F389E02D80818F7D80830895EF922B
:10049000FF920F931F93CF93DF93EC0181E0888F3E
:1004A0009B8D8C8D98131AC0E889F989808185FF0E
:1004B00015C09FB7F894EE89FF896083E889F989B0
:1004C00080818370806480839FBF81E090E0DF91B2
:1004D000CF911F910F91FF90EF900895F62E0B8D05
:1004E00010E00F5F1F4F0F731127E02E8C8D8E11C0
:1004F0000CC00FB607FCFACFE889F989808185FF27
:10050000F5CFCE010E942502F1CFEB8DEC0FFD2F30
:10051000F11DE35AFF4FF0829FB7F8940B8FEA89E1
:10052000FB8980818062CFCFCF93DF93EC01888DF0
:100530008823B9F0AA89BB89E889F9898C9185FD5E
:1005400003C0808186FD0DC00FB607FCF7CF8C91EC
:1005500085FFF2CF808185FFEDCFCE010E9425027D
:10056000E9CFDF91CF910895833081F028F4813075
:1005700099F08230A9F008958730A9F08830C9F049
:100580008430B1F4809180008F7D03C08091800021
:100590008F7780938000089584B58F7784BD089508
:1005A00084B58F7DFBCF8091B0008F778093B000B2
:1005B00008958091B0008F7DF9CF1F93CF93DF9383
:1005C000282F30E0F901EA56FE4F8491F901E352F9
:1005D000FD4FD491F901E753FD4FC491CC23A9F00D
:1005E000162F81110E94B402EC2FF0E0EE0FFF1FD6
:1005F000E154FD4FA591B4918FB7F894EC9111118E
:1006000008C0D095DE23DC938FBFDF91CF911F917F
:100610000895DE2BF8CFCF93DF9390E0FC01E352F7
:10062000FD4F249187539D4FFC0184918823C9F08D
:1006300090E0880F991FFC01E652FF4FA591B491FD
:10064000FC01E154FD4FC591D49161110DC09FB7DC
:10065000F8948C91209582238C9388812823288379
:100660009FBFDF91CF910895623051F49FB7F89406
:100670003C91822F809583238C93E8812E2BEFCFA2
:100680008FB7F894EC912E2B2C938FBFEACF3FB706
:10069000F8948091870190918801A0918901B0918F
:1006A0008A0126B5A89B05C02F3F19F00196A11D10
:1006B000B11D3FBFBA2FA92F982F8827BC01CD01AC
:1006C000620F711D811D911D42E0660F771F881F0B
:1006D000991F4A95D1F708950C9447032FB7F894C2
:1006E00060918301709184018091850190918601D0
:1006F0002FBF089520918D0130918E012817390761
:1007000071F490918B0180918C01981741F0E091E8
:100710008B01F0E0EE5BFE4F808190E008958FEF5B
:100720009FEF0895EF92FF920F931F93CF93DF9364
:10073000DC015C96ED90FC905D97E114F10479F496
:1007400081E090E013969C938E93129790E080E066
:10075000DF91CF911F910F91FF90EF9008955196E7
:10076000ED91FC91529750968C915097982F9095BF
:100770000FB75E962C915E97122F127021FD609537
:10078000F8942081112319F1282B2083E701219768
:10079000F1F728E0462F50E0308160FF1AC0382B77
:1007A0003083E7012197F1F7BA01759567952150DC
:1007B00089F7112381F08081892380830FBF5C96A4
:1007C0008D919C910197F1F781E090E0C1CF2923B1
:1007D000DCCF3923E5CF9081892BEFCF0F931F9387
:1007E000CF93DF938C01D0E0C0E0F801EC0FFD1F48
:1007F0006491662341F089E492E00E949203892B80
:1008000011F02196F2CFCE01DF91CF911F910F9180
:10081000089520918D0130918E012817390771F4C8
:1008200080918C0120918B0190E0805C9F4F821B16
:10083000910960E470E00E945311089590E080E017
:10084000089520918D0130918E0128173907B9F450
:1008500090918B0180918C01981789F0E0918B0128
:10086000F0E0EE5BFE4F808120918B0130E02F5F46
:100870003F4F2F73332720938B0190E008958FEF24
:100880009FEF089590E080E008958F929F92AF923D
:10089000BF92CF92DF92EF92FF920F931F93CF936D
:1008A000DF936C017B018B01040F151F0E946E0307
:1008B0004B015C01E701C017D107C8F40E946E0329
:1008C000681979098A099B09683B7B408105910574
:1008D00070F4D6018D919C91DC01ED91FC91028424
:1008E000F385E02D099597FDE6CF8993E4CFCE01FE
:1008F0008E199F09DF91CF911F910F91FF90EF907B
:10090000DF90CF90BF90AF909F908F900895FC01A3
:1009100001900020E9F73197AF01481B590BBC014A
:1009200089E492E00C94A7018F929F92AF92BF92BC
:100930000F931F93CF93DF93CDB7DEB7A1970FB679
:10094000F894DEBF0FBECDBF19A2423008F44AE0D2
:100950008E010F5D1F4F842E912CB12CA12CA5016F
:1009600094010E946711E62FB901CA01EA30F4F43C
:10097000E05DD801EE938D01232B242B252B79F7F5
:1009800090E080E0109719F0CD010E948704A196B5
:100990000FB6F894DEBF0FBECDBFDF91CF911F9190
:1009A0000F91BF90AF909F908F900895E95CE1CF39
:1009B0006BE589E492E00E9492030E946E034AE094
:1009C0000E94940488E690E00C94EE03CF93DF93AA
:1009D000BC0190E080E04AE00E949404EC018AE2CD
:1009E00091E00E9487048C0F9D1FDF91CF910895A5
:1009F000CF93DF930E94EE03EC018AE291E00E9424
:100A000087048C0F9D1FDF91CF910895CF93DF93C3
:100A10000E948704EC018AE291E00E9487048C0F17
:100A20009D1FDF91CF910895DC01ED91FC9111970D
:100A3000309761F012962D913C911397E217F307CE
:100A400028F401900020E9F7ED93FC930895FC0150
:100A500080819181009739F0228133818217930739
:100A600010F40C94B31090E080E008950F931F935E
:100A7000CF93DF93EC01FB0101900020E9F78F0198
:100A8000061B170B8A819B81A801480F591F2C81D7
:100A90003D812417350768F028813981A801820F2C
:100AA000931F0E94A3114A815B81400F511F5B83FA
:100AB0004A83DF91CF911F910F9108950F931F9358
:100AC000CF93DF93CDB7DEB762970FB6F894DEBF52
:100AD0000FBECDBF8C01CB014AE0BE016F5F7F4FDF
:100AE0000E940111BE016F5F7F4FC8010E94360551
:100AF00062960FB6F894DEBF0FBECDBFDF91CF91E7
:100B00001F910F9108953F924F925F926F927F9243
:100B10008F929F92AF92BF92CF92DF92EF92FF920D
:100B20000F931F93CF93DF93CDB7DEB7A3970FB685
:100B3000F894DEBF0FBECDBF6C012DB73EB73BA30F
:100B40002AA30E946C03D60157968D919C915897C9
:100B5000B12C029709F408C456968C9156978F5F72
:100B600056968C93569754962D913C915597232BDE
:100B700019F0BB24B394F1C38330D8F7ED91FC9105
:100B80008281882309F4CEC3FE0131964F0150E1E2
:100B9000452E512CD601ED91FC9180819181DC0193
:100BA000ED91FC910084F185E02D09951816190648
:100BB0000CF0B8C345E050E0BE01695E7F4FF6011E
:100BC000808191810E944504009721F3059709F0E7
:100BD0006EC0888D998D982789279827998F888F3F
:100BE0000A8D1B8D1027012710271B8F0A8F892B39
:100BF00009F45DC08F8981116FC00E946E03D60118
:100C000016966D937D938D939C93199757962D917E
:100C10003C918A8D9B8D232B09F05AC0288D398DEC
:100C20002130310509F054C08930910599F1883C93
:100C3000910519F0049709F040C00E94D80488E893
:100C400091E00E94EE03F6016681778180859185AF
:100C50000685178520893189601B710B820B930BE8
:100C60004AE00E94940483E891E00E94F804F601AF
:100C700086819781A085B18586879787A08BB18B68
:100C800021E030E0308F278BC6010E94BC0B0E9410
:100C90006C0380CF0E94D80482E892E00E94F8049E
:100CA00083E090E0D60158969C938E935797D60197
:100CB000ED91FC911282B12C50C30E94D8048BE6B6
:100CC00092E00E94EE038A8D9B8D0E94E604EFCF96
:100CD000059709F05FCFEBCF0130B1E01B0790F033
:100CE0000E94D8048AE592E00E94EE038A8D9B8DD3
:100CF0000E94E604F601108E178A0190F081E02D23
:100D0000128248CFADB6BEB6C80101962DB73EB728
:100D1000281B390B0FB6F8943EBF0FBE2DBF4DB741
:100D20005EB74F5F5F4F7A01A801B701D6018D9181
:100D30009C910E9445048017910709F077C0EA8DC5
:100D4000FB8DEE0DFF1D10820E946E03F60166837F
:100D50007783808791878F89813109F4D3C278F5B1
:100D60008630D9F08F3009F4C2C0823071F5D601D7
:100D700057968D919C91892B81F40E94D80484E52B
:100D800092E00E94F80421E030E0F601308F278BDA
:100D9000C6010E94BC0B0E946C03488D598DF12C3A
:100DA000E12C08EC10E030E020E060E0C6010E9499
:100DB000BB0A0FB6F894BEBE0FBEADBEEBCE8D31F2
:100DC000B1F260F4843109F492C0D60158961C92B5
:100DD0001E925797ED91FC911282EBCF893281F0F0
:100DE000873399F78A8D9B8D892B19F30E94D8043C
:100DF0008BE392E00E94EE03C7010E940605D9CF63
:100E000084819581892B39F480E290E00E948E0FD5
:100E1000F601958384830A8D1B8D0E0D1F1DFA82AA
:100E2000E9821C830B83E016F10630F00FB6F894CC
:100E3000BEBE0FBEADBE3BCF40E250E0B701D60113
:100E400014968D919C910E94B511C4010E941405C5
:100E5000FC01808191818017910708F045C089814C
:100E60009A810097E9F12B813C8182179307C0F5A5
:100E70000E94D1108B010E94D80484E492E00E9469
:100E8000EE03D60114968D919C91009711F00E946B
:100E900087046AE389E492E00E949203C8010E94F9
:100EA000E604D601ED91FC911197128258961C929E
:100EB0001E9257970E946E03DC01CB018858934124
:100EC000A109B109F60182879387A487B587868334
:100ED0009783A087B18786879787A08BB18B69CFCF
:100EE00060E070E0CB01C6CF00E510E0C4CF888D94
:100EF000998DD60155969C938E935497EA8DFB8DD0
:100F0000F9A3E8A33F016E0C7F1CFD8EEC8E7F8E53
:100F10006E8EE614F70408F08AC1D7010D911C917A
:100F2000CE014C960E941405FC01808191818615AA
:100F3000970508F07CC18C8D9D8DDC012C912134AE
:100F400009F063C001960E94B3104EE0342E380EB3
:100F500006970CF45FC00637B2E71B0709F467C1B8
:100F600008F0F8C20136F2E71F0709F4DEC20436C2
:100F700022E7120709F05EC033243A949A8A898ADC
:100F80001C8A1B8A5E8A4D8A6BE371E0CE01419612
:100F90000E943605032D10E0B801CE0141960E9453
:100FA0005E05F801EA56FE4F8491F801E352FD4FC9
:100FB000F49007531D4FF801049160E070E00023A6
:100FC00089F081110E94B402E02FF0E0EE0FFF1FC4
:100FD000EB54FD4FA591B491EC91FE2261E070E0DD
:100FE00009F460E0CE0141960E945E050B891C89E0
:100FF0000150110929893A89F12CE12C50E040E097
:1010000064E1C6010E94BB0A12C1CE014C960E9447
:101010002705382E0637B2E71B0709F42BC118F550
:101020000136F2E71F0709F4B1C0043622E71207C0
:1010300009F4A4CF00371D4609F46DC00E94D804FE
:101040008AE292E00E94EE03C7010E940605D601E3
:1010500054964D915C91F12CE12C02E010E030E0CF
:1010600020E060E0CECF043647E7140709F473C0F0
:10107000063757E7150709F416C101361747F1F689
:10108000CE014C960E941405DC018D919C91861531
:10109000970508F0CCC061E0832D0E940B03CE01C0
:1010A0004C960E9427058C0161E0832D0E940B0362
:1010B0000115110509F465C00F3F110509F092C033
:1010C00061E060C0CE014C960E942705F82ECE014B
:1010D0004C960E9414050C8D1D8D6DE271E0C801C7
:1010E0000E94AC1160E0892B79F060E371E0C801E7
:1010F0000E94AC11892B39F064E371E0C8010E94B1
:10110000AC11892BE9F461E08F2D0E940B03CE0115
:101110004C960E9414058C8D9D8D8615970508F0C0
:1011200086C0DC012C91213469F601960E94B3102F
:101130003EE0F32EF80E069754F2FF24FA94C7CF40
:1011400068E371E0C8010E94AC11892B01F762E0ED
:10115000DBCF33243A94CE014C960E941405DC0177
:101160008D919C918615970508F061C061E0832DF3
:101170000E940B03CE014C960E94270561E0892B4B
:1011800009F460E0832D0E94DD0251C09A8A898AA9
:101190001C8A1B8A5E8A4D8A6EE371E0CE014196FD
:1011A0000E943605632D70E0CE0141960E945E05D7
:1011B000BDE0B31510F4E2EF3E0E832D877080641E
:1011C00080937C0080917A00806480937A00809183
:1011D0007A0086FDFCCF8091780060917900762FAF
:1011E000682F00CFE32DF0E0EA56FE4FE491E330A4
:1011F00039F148F4E130B9F0E230E9F00038110596
:101200000CF05ECFBECFE73029F1E83059F1E43081
:10121000A9F78091800080628093800010938B00FA
:1012200000938A0004C084B5806884BD07BDF601C0
:10123000158A148ABECD84B5806284BD08BDF7CFFF
:1012400080918000806880938000109389000093D3
:101250008800EDCF8091B00080688093B00000934B
:10126000B300E5CF8091B00080628093B00000931E
:10127000B400DDCF3982BFE1B315C8F2E32DF0E051
:10128000EE0FFF1FE655FE4F2591349121153105D4
:1012900071F2E1E0263A3E0751F2C401F9010995E5
:1012A000C6CF33243A94CE014C960E9414052C8D5F
:1012B0003D8DC9018E199F0948A159A1481B590BA1
:1012C0003A8329835C834B835E834D83398A5FE154
:1012D000531508F4ACCFE32DF0E0EE0FFF1FE651FD
:1012E000FE4F259134912115310509F4A0CF81E0FD
:1012F000253A380709F49BCFB401CE014196F90194
:10130000099595CF8A8D9B8D8E0D9F1DFA82E9825E
:101310009C838B83E816F90608F04BCDC4010E942C
:10132000140547CD0E946E032B013C01F60100819C
:101330001181D8011296BC9012978789908D8130C7
:10134000910509F08EC0B1102FC046865786608A7D
:10135000718A108E178A12961C92D60156968C911D
:101360005697815056968C938B2DAAA1BBA10FB690
:10137000F894BEBF0FBEADBFA3960FB6F894DEBF04
:101380000FBECDBFDF91CF911F910F91FF90EF90D6
:10139000DF90CF90BF90AF909F908F907F906F9095
:1013A0005F904F903F90089586819781A085B18589
:1013B000A3019201281B390B4A0B5B0BDA01C9010F
:1013C00089333AE49307A105B10560F00E94D8047F
:1013D00083EA92E00E94F804D60158961C921E926D
:1013E000579766CC81319742A105B10598F4F60173
:1013F00082859385A485B585A3019201281B390BAD
:101400004A0B5B0BDA01C90181319742A105B10595
:1014100008F4AFCBF60186859785A089B189A30131
:101420009201281B390B4A0B5B0BDA01C901893B7E
:101430009B40A105B10508F49CCBF12CE12C10E0F8
:1014400000E030E020E050E040E066E0C6010E94AD
:10145000BB0AD6011E964D925D926D927C92519779
:101460007CCF892B09F085CB86859785A089B189AA
:10147000481A590A6A0A7B0ABB20C1F0F9EB4F16D9
:10148000FBE05F066104710408F473CB0E94D8048A
:1014900085E992E00E94F804D601ED91FC91119744
:1014A000128258961C921E92579705CCB9E84B169B
:1014B000B3E15B066104710408F45BCB0E94D804BD
:1014C00085E791E00E94F804F80180819181DC01B8
:1014D000ED91FC910680F781E02D099581E0F801FE
:1014E000828381E090E0D60153969C938E9352972D
:1014F00012962D913C91F90101900020E9F7319766
:101500008F01021B130BF12CE12C41E050E06DE147
:10151000C6010E94BB0AF60182859385A485B58524
:1015200086879787A08BB18B24CB9A8A898A1C8A5D
:101530001B8A5E8A4D8A6EE371E0CE0141960E945D
:1015400036056FEF70E0CE0141960E945E053324B0
:101550003A9431CE043647E7140709F4FACD06373A
:1015600057E7150709F49DCE0136174709F066CDF8
:1015700033243A9485CD2F923F924F925F927F927F
:101580008F929F92AF92BF92CF92DF92EF92FF9293
:101590000F931F93CF93DF9300D000D01F92CDB74E
:1015A000DEB77C01762E6A015901DC01ED91FC91D8
:1015B0008281882309F4A9C0862F8D7F09F4D7C0C2
:1015C000B6E06B1709F4D3C0EDE16E1709F4CFC094
:1015D000D70157968D919C91019709F096C0452BA4
:1015E00081F4F701C488D588C114D10451F48289EB
:1015F0009389019609F4A0C0938B828BF701C2886E
:10160000D38884EF870D8930B0F5D7011A964D91B4
:101610005D916D917C911D9716968D919D910D9088
:10162000BC91A02D84179507A607B70710F4DB011E
:10163000CA011C012D01E2E42E0E311C411C511C7B
:101640000E946E03A2019101261B370B480B590B18
:10165000DA01C901B7FD75C0C7010E9483050E9468
:101660006E03A2019101261B370B480B590BDA01BF
:10167000C901B7FFF1CF4801B5E08B0E911CA11451
:10168000B10419F485E0882E912C7982DC24CD24D4
:10169000DC24DB82CA82902F812F9D838C83D7012B
:1016A000ED91FC9180819181DC01ED91FC910280B2
:1016B000F381E02D45E050E0BE016F5F7F4F09955B
:1016C0000E946C03772009F445C00115110509F447
:1016D00041C0D701ED91FC9180819181DC01ED91B8
:1016E000FC910280F381E02DA801B50109950B5F03
:1016F0001F4F0E946C038016910679F1F701108E3E
:10170000178A0190F081E02D12820F900F900F90B8
:101710000F900F90DF91CF911F910F91FF90EF905D
:10172000DF90CF90BF90AF909F908F907F905F9011
:101730004F903F902F90089581E090E0938B828BA3
:101740005DCFD70156968C91811195CFC7010E942C
:10175000830591CF05E010E0CECF0E946E03D70144
:101760001A966D937D938D939C931D97CECFC11444
:10177000D10409F080CF35CFCF92DF92EF92FF9264
:101780000F931F93CF93DF93CDB7DEB7C55AD1091F
:101790000FB6F894DEBF0FBECDBF6C0145E650E03A
:1017A00063E770E0CE0101960E94F810CE018A59DD
:1017B0009F4F7C0105E610E09E012F5F3F4F50E0F8
:1017C00040E061E1C6010E94BB0ACB55DF4F0FB676
:1017D000F894DEBF0FBECDBFDF91CF911F910F9167
:1017E000FF90EF90DF90CF9008951F920F920FB669
:1017F0000F9211242F933F934F935F936F937F9397
:101800008F939F93AF93BF93EF93FF9380E991E002
:101810000E942502FF91EF91BF91AF919F918F910F
:101820007F916F915F914F913F912F910F900FBEDC
:101830000F901F9018951F920F920FB60F921124C0
:101840002F938F939F93EF93FF93E091A001F091DB
:10185000A1018081E091A601F091A70182FD1BC04A
:1018600090818091A9018F5F8F732091AA018217C7
:1018700041F0E091A901F0E0E057FE4F958F809391
:10188000A901FF91EF919F918F912F910F900FBE22
:101890000F901F9018958081F4CF1F920F920FB672
:1018A0000F9211242F933F938F939F93AF93BF93E6
:1018B0008091830190918401A0918501B09186016E
:1018C0003091820123E0230F2D3758F50196A11D99
:1018D000B11D209382018093830190938401A09392
:1018E0008501B09386018091870190918801A09134
:1018F0008901B0918A010196A11DB11D80938701D4
:1019000090938801A0938901B0938A01BF91AF9110
:101910009F918F913F912F910F900FBE0F901F902D
:10192000189526E8230F0296A11DB11DD2CF1F9254
:101930000F920FB60F9211242F933F934F935F9303
:101940006F937F938F939F93AF93BF93EF93FF9387
:10195000E0918D01F0918E01309749F0A685B78511
:101960008585968D91FF14C09C918923A1F4FF91E8
:10197000EF91BF91AF919F918F917F916F915F9107
:101980004F913F912F910F900FBE0F901F90189580
:101990009C91892361F7A389B4899C91858980955D
:1019A00089238C93868997890197F1F7608D718DD2
:1019B000A685B785558538E020E0CB010197F1F782
:1019C000822F90E095958795282F4C91452309F01B
:1019D0002068315091F7868D81FD209580918C0192
:1019E00090E001968F73992730918B01381799F009
:1019F000A0918C01B0E0AE5BBE4F2C9380938C0124
:101A0000828D938D0197F1F7A389B4898C91958983
:101A1000892B8C93ACCF868D8160868FF1CF10920D
:101A200093011092920188EE93E0A0E0B0E08093E1
:101A3000940190939501A0939601B09397012AE0A9
:101A400031E0309391012093900125EC30E0309308
:101A50009D0120939C0124EC30E030939F01209362
:101A60009E0120EC30E03093A1012093A00121ECF5
:101A700030E03093A3012093A20122EC30E03093B8
:101A8000A5012093A40126EC30E03093A701209318
:101A9000A6011092A9011092AA011092AB01109216
:101AA000AC0110924C0210924B0280934D02909325
:101AB0004E02A0934F02B09350028CE191E09093BC
:101AC0004A02809349021092600210925F021092C3
:101AD00062021092610210926402109263021092EC
:101AE000660210926502609167026E7F6D7F60935F
:101AF00067026695617081E068278FE60E94DD02CB
:101B000061E08FE60E940B03ECE4F3E0E491E093E4
:101B10005902E8E3F3E0E491F0E0EE0FFF1FE15437
:101B2000FD4F8591949190935B0280935A0260E0FF
:101B30008AE00E940B038091670281FD04C061E08E
:101B40008AE00E94DD028AE080935502E7EEF2E02F
:101B5000E491E0935602E3EDF2E0E491F0E0EE0F61
:101B6000FF1FEB54FD4F8591949190935802809301
:101B7000570210924702109246021092480286E4E1
:101B800092E090932E0280932D02109230021092D8
:101B90002F021092320210923102109233021092F0
:101BA00034021092350210923602109237021092CF
:101BB00038021092390210923A0210923B021092AF
:101BC0003C0210923D0210923E021092400210928E
:101BD0003F02109242021092410210924302109270
:101BE0004502109244020895789484B5826084BDC1
:101BF00084B5816084BD85B5826085BD85B5816011
:101C000085BD80916E00816080936E00109281008E
:101C10008091810082608093810080918100816049
:101C2000809381008091800081608093800080910A
:101C3000B10084608093B1008091B0008160809396
:101C4000B00080917A00846080937A0080917A005D
:101C5000826080937A0080917A00816080937A001C
:101C600080917A00806880937A001092C10010926F
:101C7000640210926302109262021092610210924A
:101C8000600210925F028DE991E09093660280936A
:101C9000650290915502963108F047C02DEB30E077
:101CA0003093600220935F022BE931E030936202AF
:101CB000209361022CE231E03093640220936302AE
:101CC0002091680084E0983048F031E09E3008F4BC
:101CD00030E081E001C0880F3A95EAF7822B8093CB
:101CE00068002DE630E0983050F02BE630E09E3072
:101CF00030F02CE630E0963110F030E020E0309308
:101D00005D0220935C02292F30E0983008F0C8C0B3
:101D100081E001C0880F9A95EAF780935E02809176
:101D20006502909166020197F1F7809163029091AC
:101D30006402892B49F1E0918D01F0918E0122E03E
:101D4000E934F20709F1309739F0A389B4899C91FD
:101D50008589809589238C93809167028E7F8093FB
:101D6000670210928C0110928B0189E492E09093AB
:101D70008E0180938D01E0915C02F0915D02808183
:101D800090915E02892B8083E091A001F091A101E6
:101D900082E08083E0919C01F0919D011082E091AE
:101DA0009E01F0919F018FEC80831092A801E09139
:101DB000A401F091A50186E08083E091A201F09159
:101DC000A301808180618083E091A201F091A30151
:101DD000808188608083E091A201F091A3018081DD
:101DE00080688083E091A201F091A30180818F7DC2
:101DF00080838FE891E09093300280932F020E94BD
:101E00006E03DC01CB0188589341A109B10980938D
:101E1000370290933802A0933902B0933A0280932C
:101E2000330290933402A0933502B093360280932C
:101E30003B0290933C02A0933D02B0933E020E946D
:101E4000D80484EE90E00E94F804E0912D02F09115
:101E50002E0280E991E091838083E0912D02F09140
:101E60002E02128210924502109244020E946E03CA
:101E70006B017C0180914402909145020197E9F049
:101E80000E946E036C197D098E099F0968327342A6
:101E90008105910590F48DE292E00E948305EACFDE
:101EA0009E3040F42850310981E001C0880F2A9506
:101EB000EAF733CF2E503109F7CF80914402909149
:101EC0004502019751F6C0E0D0E08DE292E00E9419
:101ED00083052097D1F30E9411028823B1F30E9459
:101EE0000000F3CF8CE191E090934A028093490285
:101EF00080918D0190918E018954924071F4E0910E
:101F00005C02F0915D02908180915E028095892350
:101F1000808310928E0110928D0108950F931F936C
:101F2000CF93DF938230910510F482E090E0E0914E
:101F30006A02F0916B0230E020E0B0E0A0E0309760
:101F400099F42115310509F44AC0281B390B2430B6
:101F50003105D8F58A819B816115710589F1FB01F5
:101F600093838283FE0111C04081518102811381DC
:101F700048175907E0F04817590799F4109761F08E
:101F800012960C93129713961C933296CF01DF9101
:101F9000CF911F910F91089500936A0210936B02E5
:101FA000F4CF2115310551F04217530738F0A9013C
:101FB000DB019A01BD01DF01F801C1CFEF01F9CFCB
:101FC00090936B0280936A02CDCFFE01E20FF31F64
:101FD000819391932250310939832883D7CF20915F
:101FE000680230916902232B41F420910201309163
:101FF000030130936902209368022091000130911F
:1020000001012115310541F42DB73EB7409104017E
:1020100050910501241B350BE0916802F091690293
:10202000E217F307A0F42E1B3F0B2817390778F0AF
:10203000AC014E5F5F4F2417350748F04E0F5F1F0E
:102040005093690240936802819391939FCFF0E08F
:10205000E0E09CCFCF93DF930097E9F0FC0132974B
:1020600013821282A0916A02B0916B02ED0130E0FE
:1020700020E01097A1F420813181820F931F2091DD
:102080006802309169022817390709F061C0F0939E
:102090006902E0936802DF91CF910895EA01CE17BB
:1020A000DF07E8F54A815B819E0141155105B1F7D3
:1020B000E901FB83EA8349915991C40FD51FEC17BD
:1020C000FD0761F4808191810296840F951FE901DB
:1020D00099838883828193819B838A83F0E0E0E007
:1020E00012968D919C9113970097B9F52D913C9183
:1020F0001197CD010296820F931F209168023091B3
:1021000069022817390739F6309751F510926B029A
:1021100010926A02B0936902A0936802BCCFD38385
:10212000C28340815181840F951FC817D90761F47C
:102130004E5F5F4F88819981480F591F51834083BB
:102140008A819B81938382832115310509F0B0CF69
:10215000F0936B02E0936A029ECFFD01DC01C0CFD9
:1021600013821282D7CFFC0188279927E894219106
:102170002032E9F3293010F02E30C8F32B3241F031
:102180002D3239F4689404C00E942111820F911DF0
:10219000219120532A30C0F31EF4909581959F4FD2
:1021A00008951F93FC0199278827BC01E894119199
:1021B0001032E9F3193010F01E30C8F31B3251F021
:1021C0001D3249F4689406C00E940C11610F711D04
:1021D000811D911D119110531A30B0F33EF490956A
:1021E0008095709561957F4F8F4F9F4F1F910895F8
:1021F000FB01DC0102C005900D9241505040D8F720
:102200000895BB274A3031F4992322F4BDE290951A
:1022100081959F4F0C942A11592F482F372F262F25
:10222000660F771F881F991F660F771F881F991FDA
:10223000620F731F841F951F660F771F881F991FDA
:1022400008957AE0979F902D879F802D910D1124FE
:102250000895BB27FB015527AA27880F991FAA1F9E
:10226000A41710F0A41B83955051B9F7A05DAA33B1
:1022700008F0A95DA193009779F7B111B19311927C
:10228000CB010C944311DC01FC01672F7191772382
:10229000E1F7329704C07C916D9370836291AE1721
:1022A000BF07C8F3089597FB072E16F4009407D0D4
:1022B00077FD09D00E94891107FC05D03EF4909566
:1022C00081959F4F0895709561957F4F0895A1E284
:1022D0001A2EAA1BBB1BFD010DC0AA1FBB1FEE1FA0
:1022E000FF1FA217B307E407F50720F0A21BB30BEB
:1022F000E40BF50B661F771F881F991F1A9469F767
:1023000060957095809590959B01AC01BD01CF01C2
:102310000895AA1BBB1B51E107C0AA1FBB1FA6172C
:10232000B70710F0A61BB70B881F991F5A95A9F77E
:1023300080959095BC01CD010895EE0FFF1F05908B
:10234000F491E02D0994FB01DC0102C001900D9293
:1023500041505040D8F70895FB01DC018D91019068
:1023600080190110D9F3990B0895FB01DC0141504C
:10237000504048F001900D920020C9F701C01D9215
:1023800041505040E0F7089511E0CAE7D1E004C0A1
:10239000FE010E949D112196CB37D107C9F7F89411
:1023A000FFCF00006C028000000000004702A70180
:1023B000D40194020502E301F7010000000092033A
:1023C000A7014204A601090421047A030D0A006949
:1023D0006E006F75740070776D0070750064770023
:0423E0006177000021
:107E0000112484B714BE81FFF0D085E080938100F7
:107E100082E08093C00088E18093C10086E0809377
:107E2000C20080E18093C4008EE0C9D0259A86E02C
:107E300020E33CEF91E0309385002093840096BBD3
:107E4000B09BFECF1D9AA8958150A9F7CC24DD24C4
:107E500088248394B5E0AB2EA1E19A2EF3E0BF2EE7
:107E6000A2D0813461F49FD0082FAFD0023811F036
:107E7000013811F484E001C083E08DD089C08234E0
:107E800011F484E103C0853419F485E0A6D080C0E4
:107E9000853579F488D0E82EFF2485D0082F10E0AE
:107EA000102F00270E291F29000F111F8ED06801E7
:107EB0006FC0863521F484E090D080E0DECF843638
:107EC00009F040C070D06FD0082F6DD080E0C81688
:107ED00080E7D80618F4F601B7BEE895C0E0D1E017
:107EE00062D089930C17E1F7F0E0CF16F0E7DF06D8
:107EF00018F0F601B7BEE89568D007B600FCFDCFD4
:107F0000A601A0E0B1E02C9130E011968C91119780
:107F100090E0982F8827822B932B1296FA010C0160
:107F200087BEE89511244E5F5F4FF1E0A038BF0790
:107F300051F7F601A7BEE89507B600FCFDCF97BE46
:107F4000E89526C08437B1F42ED02DD0F82E2BD052
:107F50003CD0F601EF2C8F010F5F1F4F84911BD097
:107F6000EA94F801C1F70894C11CD11CFA94CF0C13
:107F7000D11C0EC0853739F428D08EE10CD085E9AC
:107F80000AD08FE07ACF813511F488E018D01DD067
:107F900080E101D065CF982F8091C00085FFFCCF94
:107FA0009093C60008958091C00087FFFCCF809118
:107FB000C00084FD01C0A8958091C6000895E0E648
:107FC000F0E098E1908380830895EDDF803219F02E
:107FD00088E0F5DFFFCF84E1DECF1F93182FE3DFCA
:107FE0001150E9F7F2DF1F91089580E0E8DFEE27F6
:047FF000FF270994CA
:027FFE00040479
:00000001FF
